:1000000071C0000086C0000084C0000082C00000F3
:1000100080C000007EC000007CC000007AC00000EC
:1000200078C0000076C0000074C0000072C00000FC
:1000300070C000006EC000006CC000006AC000000C
:1000400068C0000066C0000064C0000062C000001C
:1000500060C000005EC000005CC000005AC000002C
:1000600058C0000056C0000054C0000052C000003C
:1000700050C000004EC000004CC000004AC000004C
:1000800048C0000046C0000044C0000042C000005C
:1000900040C000003EC000003CC000003AC000006C
:1000A00038C0000036C0000034C0000032C000007C
:1000B00030C000002EC000002CC000002AC000008C
:1000C00028C0000026C0000024C0000022C000009C
:1000D00020C000001EC000001CC000001AC00000AC
:1000E00018C0000011241FBECFEFD1E2DEBFCDBF8C
:1000F00000E00CBF12E0A0E0B2E0E4E2F4E000E0D7
:100100000BBF02C007900D92AE30B107D9F74FD1A7
:1001100087C176CF5E9A00C05E980895CF93C82FAE
:10012000662311F05C9A01C05C985D98EAE0F1E00A
:10013000808180648083808180688083529A539A12
:100140005B985A98EBE0F1E080818F778083808123
:100150008F7B8083CC230CF45B9AC6FD5A9AC5FF33
:1001600005C0EBE0F1E0808180688083C4FF05C0BA
:10017000EBE0F1E0808180648083CCDF5B985A986B
:10018000EBE0F1E080818F77808380818F7B8083BB
:10019000C3FD5B9AC2FD5A9AC1FF05C0EBE0F1E0D6
:1001A000808180688083C0FF05C0EBE0F1E0808142
:1001B00080648083AFDFEBE0F1E080818064808346
:1001C0008081806880835A9A5B9ACF9108955C9869
:1001D0005D98EAE0F1E0908190649083908190686E
:1001E0009083529A539A5B985A98EBE0F1E0908191
:1001F0009F77908390819F7B908388230CF45B9AF8
:1002000086FD5A9A85FF05C0EBE0F1E09081906889
:10021000908384FF05C0EBE0F1E0808180648083FF
:1002200079DFEBE0F1E08081806480838081806809
:1002300080835A9A5B9A0895882311F05C9A01C0D2
:100240005C985D9AEAE0F1E080818F7B8083808119
:100250008F778083529853985E9A00C080910901ED
:1002600086FD02C080E001C080E1909109019923E0
:100270000CF480624A9980644B9980685E9800C053
:100280005E9A00C09091090196FD816090910901EC
:1002900099230CF482604A9984604B9988605E9837
:1002A000089580E0C9DF8823E4F388E090E00197B7
:1002B000F1F780E0C1CF0895CF93C82FF2DF60E05F
:1002C0008C2F2CDFCF910895CF93C82FEADFCA304F
:1002D00099F4803248F090EE980F903238F08054C4
:1002E000803230F480E605C080E203C080E401C0C3
:1002F00080E08058E1DF03C061E08C2F0FDFCF91F9
:100300000895CF93DF93EC012196FC01808188232F
:1003100021F0DADF89918111FCCFDF91CF9108952F
:10032000CF93C82F549A559A569AEAE0F1E080810B
:1003300080648083808180688083529A539AE0E44D
:10034000FCE93197F1F7E0E4FCE93197F1F780E25D
:100350003EDFE0EAF0E03197F1F780E238DF80E855
:1003600036DFE0EAF0E03197F1F780E030DF80EE51
:100370002EDFE0EAF0E03197F1F780E028DF80E15E
:1003800026DFE0E0F9E13197F1F780E020DF80E659
:100390001EDFE0EAF0E03197F1F784E28DDF89E0DB
:1003A0008BDF80E289DF8C2F87DFCF910895CF9399
:1003B000DF931F92CDB7DEB78FE0B2DF80E092E02F
:1003C000A0DF8FEC90E09093C5008093C40082E0A2
:1003D0008093C00088E18093C10086E08093C200D2
:1003E00081E689838093C6000F2EF6ECEF2EF12C68
:1003F000F02D00EC10E0CE01019683DF2FEF81EEAF
:1004000094E0215080409040E1F700C000008981D5
:1004100091E0980F9983F7018083F8018081EBCFF9
:04042000F894FFCF7E
:0E04240053657269616C20746573743A000050
:00000001FF
